:0400000002048D3237
:03000B0002049458
:0300110002000EDC
:03000E0002045990
:20001400120498E5827830F6783B16783BE620E7FA783AE6700E783A76017830E6FF747FF7
:200034005FF6800C783B76017830E6FF74804FF6783B06783D0675820112049D120498E529
:20005400827831F6783B16783BE620E7FA783AE6FF3395E0FE1FBFFF011EEF4E700D783A63
:20007400F67831E6FF747F5FF6800C783B76007831E6FF74804FF6783B06783D0622120478
:2000940098E5827832F6783B16783BE620E7FA783AE6700E783A76027832E6FF747F5FF633
:2000B400800C783B76027832E6FF74804FF6783B06783D0675820212049D120498E5827800
:2000D40033F6783B16783BE620E7FA783AE6FF3395E0FEEF24FEFFEE34FFFE4F700D783A96
:2000F400F67833E6FF747F5FF6800C783B76007833E6FF74804FF6783B06783D06221204F4
:2001140098E5827834F6783B16783BE620E7FA783AE6700E783A76037834E6FF747F5FF6AD
:20013400800C783B76037834E6FF74804FF6783B06783D0675820112049D120498E582787D
:2001540035F6783B16783BE620E7FA783AE6FF3395E0FEEF24FDFFEE34FFFE4F700D783A14
:20017400F67835E6FF747F5FF6800C783B76007835E6FF74804FF6783B06783D062212046F
:2001940098E5827836F6783B16783BE620E7FA783AE6700E783A76047836E6FF747F5FF628
:2001B400800C783B76047836E6FF74804FF6783B06783D0675820312049D120498E58278F8
:2001D40037F6783B16783BE620E7FA783AE6FF3395E0FEEF24FCFFEE34FFFE4F700D783A93
:2001F400F67837E6FF747F5FF6800C783B76007837E6FF74804FF6783B06783D06221204EB
:2002140098E5827838F6783B16783BE620E7FA783AE6700E783A76057838E6FF747F5FF6A2
:20023400800C783B76057838E6FF74804FF6783B06783D0675820212049D120498E5827875
:2002540039F6783B16783BE620E7FA783AE6FF3395E0FEEF24FBFFEE34FFFE4F700D783A11
:20027400F67839E6FF747F5FF6800C783B76007839E6FF74804FF6783B06783D06224389B0
:2002940020758DFA759850D28E783D16783DE620E7FA783D16783DE620E7FA783D16783D23
:2002B400E620E7FA783D16783DE620E7FA783D16783DE620E7FA783D16783DE620E7FA7896
:2002D4003D16783DE620E7FA783D16783DE620E7FA783D16783DE620E7FA783D16783DE6E7
:2002F40020E7FA784E7600784B7601784EC3E66480948A400122785B7600785BC3E66480F6
:20031400948A4003020453785BE62430F9784CE7F6784C794D747F56F7784D794B86F0E7B8
:20033400B5F002800302044D75996310990280FB75996110990280FB75997210990280FB5A
:20035400785BC2D575F002E630E704B2D5F4048430D502F4042431F59910990280FB75999E
:200374002010990280FB785BE6A2E754016004500244FE601A75996F10990280FB759975F4
:2003940010990280FB75997410990280FB801075996910990280FB75996E10990280FB7537
:2003B400992010990280FB75997010990280FB75996C10990280FB75996F10990280FB75EE
:2003D400997410990280FB784CE6235401FF2431F59910990280FB75992010990280FB75E3
:2003F400996110990280FB75997410990280FB75992010990280FB75997410990280FB75B0
:20041400996910990280FB75996D10990280FB75996510990280FB75992010990280FB789A
:200434004C747F56FF2430F59910990280FB75990A10990280FB784E06785B0602030E789E
:200454004B060202FF783B7600783A7600783B7601783D7600900014120635900092120663
:20047400359001121206359001921206359002121206359002920206350205ED2222222205
:0404940002053932F2
:20049800782C868222AF827828E6246BF9C007C001120498E582D001D0072FF77828E62422
:2004B80024F876FE0206B5C2AF782A7600785C7600782B7601782BC3E664809484502C78AE
:2004D8002BE62424F98707785CC3E664808FF063F08095F05010782BE62424F9785CE7F611
:2004F800782B792AE6F7782B0680CA782AE67004782F7601D2AF782FE670FBC2AF782AE642
:20051800601B782A7928E6F77828E62420F98781D0D0D083D082D0F0D0E0D2AF22D2AF8004
:2005380086C0E0C0F0C082C083C0D0C2D4C2D37828E62420F8A681782F7600782DB6040424
:200558007F008005782DE604FF782DA607782DE67003782C06782B7601782BC3E664809419
:2005780084505A782BE62424F98707C374808FF063F08095F05020782B792886F0E7B5F099
:200598000A782BE62424F87601802D782BE62424F9E7FF04F78021782BE62424F98707BFE9
:2005B800FE16782BE6246BF98707782CE6B50708782BE62424F8760A782B06809C782876FE
:2005D800007828E62420F98781D0D0D083D082D0F0D0E032227827760078267600782576F3
:2005F8000078247600782C7601782D760075890075A882D28C782E76049004BF1206359050
:200618000459120635E5827828F67828E62420F98781D0D0D083D082D0F0D0E022782E16BD
:20063800782EE620E7FAC2AF782B7600782BC3E664809484500E782BE62424F9E760057857
:200658002B0680E8782BB604047582FF22782BE62424F876017829A681782BE6C454F0FFD8
:20067800243FF581E5828583F0900704C082C083C0E0C0F07400C0E0C0E0C0E0C0E0782B23
:20069800792AE6C40354F8F7C02A782BE62420F8A68178298681D2AF782B868222C2AFC0B2
:2006B800E0C0F0C082C083C0D0C2D4C2D37828E62420F8A6817828B6030678287600800371
:2006D8007828067828E62424F98707C374808FF063F08095F050DE7828E62420F98781D0B0
:2006F800D0D083D082D0F0D0E0D2AF22782E06C2AF7828E62424F87600C2D4C2D37828B680
:2007180003067828760080037828067828E62424F98707C374808FF063F08095F050DE78F0
:1407380028E62420F98781D0D0D083D082D0F0D0E0D2AF2202
:00000001FF
