:0400000002011F32A8
:03000B00020126C9
:0300110002000EDC
:03000E000200EC01
:2000140078337641783DE660FB783D067837167837E620E7FA7835167835E620E7FA783B54
:20003400E62430F87933E7F6783506783606783BB60206783B76008003783B067833B65AF9
:20005400067833764180BD78330680B878347630783DE670FB783D167837167837E620E77A
:20007400FA7835167835E620E7FA783BE62430F87934E7F6783506783606783BB60206785C
:200094003B76008003783B067834B639067834763080BD78340680B8438920758DFA759850
:2000B40050D28E7836167836E620E7FA7835167835E620E7FA783CE62430F9879978350612
:2000D400783706783CB60206783C76008003783C0610990280FB80CB7832760078317600CE
:2000F40078307600783C7600783B7600783D7600783576017836760078377603900014122A
:1601140001DC9000601201DC0200AC02019B2222222202016032B0
:20012A007828B603067828760080037828067828E62424F98707C374808FF063F08095F034
:20014A0050DE7828E62420F98781D0D0D083D082D0F0D0E03222C0E0C0F0C082C083C0D02E
:20016A00C2D4C2D37828E62420F8A6817828792AE6F778297928E6F77828E62420F9878157
:20018A00D0D0D083D082D0F0D0E0782A7928E6F72278277600782676007825760078247610
:2001AA000075890075A882D28C90012A1201DCE5827829F69000EC1201DCE5827828F678B2
:2001CA0028E62420F98781D0D0D083D082D0F0D0E022C2AF782C7600782CC3E66480948417
:2001EA00500E782CE62424F9E76005782C0680E8782CB604047582FF22782CE62424F876B4
:20020A0001782AA681782CE6C454F0FF243FF581E5828583F09002A2C082C083C0E0C0F038
:20022A007400C0E0C0E0C0E0C0E0782C792BE6C40354F8F7C02B782CE62420F8A681782A0E
:20024A008681D2AF782C868222C2AFC0E0C0F0C082C083C0D0C2D4C2D37828E62420F8A6D5
:20026A00817828B603067828760080037828067828E62424F98707C374808FF063F0809562
:20028A00F050DE7828E62420F98781D0D0D083D082D0F0D0E0D2AF22C2AF7828E62424F8DC
:2002AA0076007828B603067828760080037828067828E62424F98707C374808FF063F080C2
:1902CA0095F050DE7828E62420F98781D0D0D083D082D0F0D0E0D2AF2245
:00000001FF
