:03000000020055A6
:03000600020003F2
:03000300020043B5
:20000900753141E53060031200DE853130745AB5310575314180EC053180E8758920758DD8
:20002900FA759850D28EE53070031200DE85309975300010990280FB80EC753000900009C5
:1300490012008390002412008302012702005C22222222B6
:20005C00753B00753A0075390075380090004312008385823CE53C2434F98781D0D0D083B2
:20007C00D082D0F0D0E022753F00C3E53F64809484500CE53F2438F9E76004053F80EB74A6
:20009C0004B53F047582FF22E53F2438F8760185813DE53FC454F0FF243FF581C082C08375
:2000BC007400C0E0C0E0C0E0C0E0E53FC40354F8F53EC03EE53F2434F8A681853D81853F26
:2000DC008222C0E0C0F0C082C083C0D0C2D3C2D4E53C2434F8A6817403B53C047F008004C9
:2000FC00E53C04FF8F3CE53C2438F98707C374808FF063F08095F050DEE53C2434F98781BB
:20011C00D0D0D083D082D0F0D0E022E53C2438F876007403B53C047F008004E53C04FF8FDF
:20013C003CE53C2438F98707C374808FF063F08095F050DEE53C2434F98781D0D0D083D06A
:06015C0082D0F0D0E02289
:00000001FF
